{
  "contractName": "NewsContract_lixi",
  "abi": [
    {
      "inputs": [],
      "stateMutability": "nonpayable",
      "type": "constructor"
    },
    {
      "anonymous": false,
      "inputs": [
        {
          "indexed": true,
          "internalType": "string",
          "name": "eventType",
          "type": "string"
        },
        {
          "indexed": false,
          "internalType": "uint256",
          "name": "newsKey",
          "type": "uint256"
        }
      ],
      "name": "AddNewsEvt",
      "type": "event"
    },
    {
      "anonymous": false,
      "inputs": [
        {
          "indexed": true,
          "internalType": "string",
          "name": "eventType",
          "type": "string"
        },
        {
          "indexed": false,
          "internalType": "address",
          "name": "sender",
          "type": "address"
        },
        {
          "indexed": false,
          "internalType": "uint256",
          "name": "value",
          "type": "uint256"
        }
      ],
      "name": "RewardEvt",
      "type": "event"
    },
    {
      "inputs": [],
      "name": "host_lixi",
      "outputs": [
        {
          "internalType": "address",
          "name": "",
          "type": "address"
        }
      ],
      "stateMutability": "view",
      "type": "function",
      "constant": true
    },
    {
      "inputs": [],
      "name": "maxRewardNews_lixi",
      "outputs": [
        {
          "internalType": "uint256",
          "name": "",
          "type": "uint256"
        }
      ],
      "stateMutability": "view",
      "type": "function",
      "constant": true
    },
    {
      "inputs": [],
      "name": "newsCnt_lixi",
      "outputs": [
        {
          "internalType": "uint256",
          "name": "",
          "type": "uint256"
        }
      ],
      "stateMutability": "view",
      "type": "function",
      "constant": true
    },
    {
      "inputs": [
        {
          "internalType": "uint256",
          "name": "",
          "type": "uint256"
        }
      ],
      "name": "newsData",
      "outputs": [
        {
          "internalType": "address",
          "name": "addr",
          "type": "address"
        },
        {
          "internalType": "string",
          "name": "newsCxt",
          "type": "string"
        },
        {
          "internalType": "string",
          "name": "newsContent",
          "type": "string"
        },
        {
          "internalType": "uint256",
          "name": "accumulate",
          "type": "uint256"
        },
        {
          "internalType": "bool",
          "name": "exist",
          "type": "bool"
        },
        {
          "internalType": "bool",
          "name": "pass",
          "type": "bool"
        },
        {
          "internalType": "uint256",
          "name": "key",
          "type": "uint256"
        }
      ],
      "stateMutability": "view",
      "type": "function",
      "constant": true
    },
    {
      "inputs": [],
      "name": "searchHost",
      "outputs": [
        {
          "internalType": "address",
          "name": "addr",
          "type": "address"
        }
      ],
      "stateMutability": "view",
      "type": "function",
      "constant": true
    },
    {
      "inputs": [
        {
          "internalType": "string",
          "name": "name",
          "type": "string"
        },
        {
          "internalType": "address",
          "name": "addr",
          "type": "address"
        }
      ],
      "name": "register",
      "outputs": [],
      "stateMutability": "nonpayable",
      "type": "function"
    },
    {
      "inputs": [
        {
          "internalType": "address",
          "name": "addr",
          "type": "address"
        }
      ],
      "name": "isUserExist",
      "outputs": [
        {
          "internalType": "bool",
          "name": "",
          "type": "bool"
        }
      ],
      "stateMutability": "view",
      "type": "function",
      "constant": true
    },
    {
      "inputs": [
        {
          "internalType": "address",
          "name": "addr",
          "type": "address"
        }
      ],
      "name": "Users",
      "outputs": [
        {
          "internalType": "string",
          "name": "name",
          "type": "string"
        }
      ],
      "stateMutability": "view",
      "type": "function",
      "constant": true
    },
    {
      "inputs": [
        {
          "internalType": "string",
          "name": "name",
          "type": "string"
        },
        {
          "internalType": "address",
          "name": "addr",
          "type": "address"
        }
      ],
      "name": "addManager",
      "outputs": [],
      "stateMutability": "nonpayable",
      "type": "function"
    },
    {
      "inputs": [
        {
          "internalType": "address",
          "name": "addr",
          "type": "address"
        }
      ],
      "name": "isManagerExist",
      "outputs": [
        {
          "internalType": "bool",
          "name": "",
          "type": "bool"
        }
      ],
      "stateMutability": "view",
      "type": "function",
      "constant": true
    },
    {
      "inputs": [
        {
          "internalType": "address",
          "name": "addr",
          "type": "address"
        }
      ],
      "name": "Managers",
      "outputs": [
        {
          "internalType": "string",
          "name": "name",
          "type": "string"
        }
      ],
      "stateMutability": "view",
      "type": "function",
      "constant": true
    },
    {
      "inputs": [
        {
          "internalType": "address",
          "name": "addr",
          "type": "address"
        },
        {
          "internalType": "string",
          "name": "newsCxt",
          "type": "string"
        },
        {
          "internalType": "string",
          "name": "newsContent",
          "type": "string"
        }
      ],
      "name": "addNews",
      "outputs": [
        {
          "internalType": "uint256",
          "name": "",
          "type": "uint256"
        }
      ],
      "stateMutability": "nonpayable",
      "type": "function"
    },
    {
      "inputs": [
        {
          "internalType": "uint256",
          "name": "newsKey",
          "type": "uint256"
        },
        {
          "internalType": "uint256",
          "name": "money",
          "type": "uint256"
        }
      ],
      "name": "rewardNews",
      "outputs": [],
      "stateMutability": "nonpayable",
      "type": "function"
    },
    {
      "inputs": [
        {
          "internalType": "uint256",
          "name": "newsKey",
          "type": "uint256"
        }
      ],
      "name": "isNewsExist",
      "outputs": [
        {
          "internalType": "bool",
          "name": "",
          "type": "bool"
        }
      ],
      "stateMutability": "view",
      "type": "function",
      "constant": true
    },
    {
      "inputs": [],
      "name": "totalNews",
      "outputs": [
        {
          "internalType": "uint256",
          "name": "",
          "type": "uint256"
        }
      ],
      "stateMutability": "view",
      "type": "function",
      "constant": true
    },
    {
      "inputs": [
        {
          "internalType": "address",
          "name": "addr",
          "type": "address"
        },
        {
          "internalType": "uint256",
          "name": "newsKey",
          "type": "uint256"
        }
      ],
      "name": "checkPass",
      "outputs": [],
      "stateMutability": "nonpayable",
      "type": "function"
    },
    {
      "inputs": [
        {
          "internalType": "address",
          "name": "addr",
          "type": "address"
        },
        {
          "internalType": "uint256",
          "name": "newsKey",
          "type": "uint256"
        }
      ],
      "name": "checkOut",
      "outputs": [],
      "stateMutability": "nonpayable",
      "type": "function"
    },
    {
      "inputs": [
        {
          "internalType": "uint256",
          "name": "newsKey",
          "type": "uint256"
        }
      ],
      "name": "queryCtx",
      "outputs": [
        {
          "internalType": "address",
          "name": "",
          "type": "address"
        },
        {
          "internalType": "string",
          "name": "",
          "type": "string"
        },
        {
          "internalType": "string",
          "name": "",
          "type": "string"
        },
        {
          "internalType": "uint256",
          "name": "",
          "type": "uint256"
        },
        {
          "internalType": "uint256",
          "name": "",
          "type": "uint256"
        }
      ],
      "stateMutability": "view",
      "type": "function",
      "constant": true
    },
    {
      "inputs": [
        {
          "internalType": "uint256",
          "name": "newsKey",
          "type": "uint256"
        }
      ],
      "name": "queryReward",
      "outputs": [
        {
          "internalType": "uint256",
          "name": "",
          "type": "uint256"
        }
      ],
      "stateMutability": "view",
      "type": "function",
      "constant": true
    }
  ],
  "bytecode": "0x608060405234801561001057600080fd5b50336000806101000a81548173ffffffffffffffffffffffffffffffffffffffff021916908373ffffffffffffffffffffffffffffffffffffffff1602179055506120f1806100606000396000f3fe608060405234801561001057600080fd5b50600436106101215760003560e01c80636c3b90e8116100ad578063ce8b4f9411610071578063ce8b4f941461034a578063cfcc9f1014610368578063df4799f314610386578063edbbdf2e146103a2578063f3e71c2f146103d257610121565b80636c3b90e81461027c578063709a208f146102ac57806374227a15146102c857806381340e8d146102e657806399b956a01461031a57610121565b806324818b95116100f457806324818b95146101be578063273afff0146101dc5780632d0fcfb21461020c5780635299c27a14610228578063589045021461025e57610121565b80630255fa1e14610126578063043a727b1461015657806307f42f42146101865780631e59c529146101a2575b600080fd5b610140600480360381019061013b91906116b3565b610402565b60405161014d9190611b3d565b60405180910390f35b610170600480360381019061016b91906116b3565b61045b565b60405161017d9190611b3d565b60405180910390f35b6101a0600480360381019061019b9190611797565b6104b4565b005b6101bc60048036038101906101b79190611797565b610679565b005b6101c66107b0565b6040516101d39190611c5a565b60405180910390f35b6101f660048036038101906101f191906117eb565b6107ba565b6040516102039190611b3d565b60405180910390f35b61022660048036038101906102219190611814565b6107e7565b005b610242600480360381019061023d91906117eb565b610a7d565b6040516102559796959493929190611a36565b60405180910390f35b610266610c09565b6040516102739190611c5a565b60405180910390f35b610296600480360381019061029191906116dc565b610c0f565b6040516102a39190611c5a565b60405180910390f35b6102c660048036038101906102c1919061175b565b610e00565b005b6102d0610f02565b6040516102dd9190611a1b565b60405180910390f35b61030060048036038101906102fb91906117eb565b610f2b565b604051610311959493929190611ab3565b60405180910390f35b610334600480360381019061032f91906116b3565b6111bc565b6040516103419190611b58565b60405180910390f35b610352611290565b60405161035f9190611a1b565b60405180910390f35b6103706112b4565b60405161037d9190611c5a565b60405180910390f35b6103a0600480360381019061039b919061175b565b6112ba565b005b6103bc60048036038101906103b791906116b3565b6113bd565b6040516103c99190611b58565b60405180910390f35b6103ec60048036038101906103e791906117eb565b611491565b6040516103f99190611c5a565b60405180910390f35b6000600260008373ffffffffffffffffffffffffffffffffffffffff1673ffffffffffffffffffffffffffffffffffffffff16815260200190815260200160002060010160149054906101000a900460ff169050919050565b6000600360008373ffffffffffffffffffffffffffffffffffffffff1673ffffffffffffffffffffffffffffffffffffffff16815260200190815260200160002060010160149054906101000a900460ff169050919050565b60008054906101000a900473ffffffffffffffffffffffffffffffffffffffff1673ffffffffffffffffffffffffffffffffffffffff163373ffffffffffffffffffffffffffffffffffffffff1614610542576040517f08c379a000000000000000000000000000000000000000000000000000000000815260040161053990611bda565b60405180910390fd5b81600360008373ffffffffffffffffffffffffffffffffffffffff1673ffffffffffffffffffffffffffffffffffffffff168152602001908152602001600020600001908051906020019061059892919061157e565b5080600360008373ffffffffffffffffffffffffffffffffffffffff1673ffffffffffffffffffffffffffffffffffffffff16815260200190815260200160002060010160006101000a81548173ffffffffffffffffffffffffffffffffffffffff021916908373ffffffffffffffffffffffffffffffffffffffff1602179055506001600360008373ffffffffffffffffffffffffffffffffffffffff1673ffffffffffffffffffffffffffffffffffffffff16815260200190815260200160002060010160146101000a81548160ff0219169083151502179055505050565b81600260008373ffffffffffffffffffffffffffffffffffffffff1673ffffffffffffffffffffffffffffffffffffffff16815260200190815260200160002060000190805190602001906106cf92919061157e565b5080600260008373ffffffffffffffffffffffffffffffffffffffff1673ffffffffffffffffffffffffffffffffffffffff16815260200190815260200160002060010160006101000a81548173ffffffffffffffffffffffffffffffffffffffff021916908373ffffffffffffffffffffffffffffffffffffffff1602179055506001600260008373ffffffffffffffffffffffffffffffffffffffff1673ffffffffffffffffffffffffffffffffffffffff16815260200190815260200160002060010160146101000a81548160ff0219169083151502179055505050565b6000600454905090565b60006001600083815260200190815260200160002060040160009054906101000a900460ff169050919050565b60008054906101000a900473ffffffffffffffffffffffffffffffffffffffff1673ffffffffffffffffffffffffffffffffffffffff163373ffffffffffffffffffffffffffffffffffffffff161415610876576040517f08c379a000000000000000000000000000000000000000000000000000000000815260040161086d90611c3a565b60405180910390fd5b6001600083815260200190815260200160002060000160009054906101000a900473ffffffffffffffffffffffffffffffffffffffff1673ffffffffffffffffffffffffffffffffffffffff163373ffffffffffffffffffffffffffffffffffffffff16141561091b576040517f08c379a000000000000000000000000000000000000000000000000000000000815260040161091290611c1a565b60405180910390fd5b6000811161095e576040517f08c379a000000000000000000000000000000000000000000000000000000000815260040161095590611bba565b60405180910390fd5b6001600083815260200190815260200160002060040160009054906101000a900460ff166109c1576040517f08c379a00000000000000000000000000000000000000000000000000000000081526004016109b890611b9a565b60405180910390fd5b806001600084815260200190815260200160002060030160008282546109e79190611cf2565b925050819055506001600060055481526020019081526020016000206003015460016000848152602001908152602001600020600301541115610a2c57816005819055505b604051610a38906119f1565b60405180910390207fa7fc44b1de85d88eebde64ed28aa0d7b98018497417f8181cd962d9c8052351e3383604051610a71929190611b14565b60405180910390a25050565b60016020528060005260406000206000915090508060000160009054906101000a900473ffffffffffffffffffffffffffffffffffffffff1690806001018054610ac690611dd2565b80601f0160208091040260200160405190810160405280929190818152602001828054610af290611dd2565b8015610b3f5780601f10610b1457610100808354040283529160200191610b3f565b820191906000526020600020905b815481529060010190602001808311610b2257829003601f168201915b505050505090806002018054610b5490611dd2565b80601f0160208091040260200160405190810160405280929190818152602001828054610b8090611dd2565b8015610bcd5780601f10610ba257610100808354040283529160200191610bcd565b820191906000526020600020905b815481529060010190602001808311610bb057829003601f168201915b5050505050908060030154908060040160009054906101000a900460ff16908060040160019054906101000a900460ff16908060050154905087565b60045481565b600060011515600260008673ffffffffffffffffffffffffffffffffffffffff1673ffffffffffffffffffffffffffffffffffffffff16815260200190815260200160002060010160149054906101000a900460ff16151514610c7157600080fd5b60046000815480929190610c8490611e35565b91905055508360016000600454815260200190815260200160002060000160006101000a81548173ffffffffffffffffffffffffffffffffffffffff021916908373ffffffffffffffffffffffffffffffffffffffff160217905550826001600060045481526020019081526020016000206001019080519060200190610d0c92919061157e565b50816001600060045481526020019081526020016000206002019080519060200190610d3992919061157e565b506000600160006004548152602001908152602001600020600301819055506001806000600454815260200190815260200160002060040160006101000a81548160ff02191690831515021790555060045460016000600454815260200190815260200160002060050181905550604051610db390611a06565b60405180910390207f8d8eef38bd915f5dd8c0365870eafe187176b90451422aa7c8bb06d06c9e3013600454604051610dec9190611c5a565b60405180910390a260045490509392505050565b8160011515600360008373ffffffffffffffffffffffffffffffffffffffff1673ffffffffffffffffffffffffffffffffffffffff16815260200190815260200160002060010160149054906101000a900460ff16151514610e6157600080fd5b8073ffffffffffffffffffffffffffffffffffffffff163373ffffffffffffffffffffffffffffffffffffffff1614610ecf576040517f08c379a0000000000000000000000000000000000000000000000000000000008152600401610ec690611bfa565b60405180910390fd5b600180600084815260200190815260200160002060040160016101000a81548160ff021916908315150217905550505050565b60008060009054906101000a900473ffffffffffffffffffffffffffffffffffffffff16905090565b60006060806000806001600087815260200190815260200160002060040160009054906101000a900460ff16610f96576040517f08c379a0000000000000000000000000000000000000000000000000000000008152600401610f8d90611b9a565b60405180910390fd5b600115156001600088815260200190815260200160002060040160019054906101000a900460ff16151514611000576040517f08c379a0000000000000000000000000000000000000000000000000000000008152600401610ff790611b7a565b60405180910390fd5b6001600087815260200190815260200160002060000160009054906101000a900473ffffffffffffffffffffffffffffffffffffffff166001600088815260200190815260200160002060010160016000898152602001908152602001600020600201600160008a815260200190815260200160002060030154600160008b81526020019081526020016000206005015483805461109d90611dd2565b80601f01602080910402602001604051908101604052809291908181526020018280546110c990611dd2565b80156111165780601f106110eb57610100808354040283529160200191611116565b820191906000526020600020905b8154815290600101906020018083116110f957829003601f168201915b5050505050935082805461112990611dd2565b80601f016020809104026020016040519081016040528092919081815260200182805461115590611dd2565b80156111a25780601f10611177576101008083540402835291602001916111a2565b820191906000526020600020905b81548152906001019060200180831161118557829003601f168201915b505050505092509450945094509450945091939590929450565b6060600260008373ffffffffffffffffffffffffffffffffffffffff1673ffffffffffffffffffffffffffffffffffffffff168152602001908152602001600020600001805461120b90611dd2565b80601f016020809104026020016040519081016040528092919081815260200182805461123790611dd2565b80156112845780601f1061125957610100808354040283529160200191611284565b820191906000526020600020905b81548152906001019060200180831161126757829003601f168201915b50505050509050919050565b60008054906101000a900473ffffffffffffffffffffffffffffffffffffffff1681565b60055481565b8160011515600360008373ffffffffffffffffffffffffffffffffffffffff1673ffffffffffffffffffffffffffffffffffffffff16815260200190815260200160002060010160149054906101000a900460ff1615151461131b57600080fd5b8073ffffffffffffffffffffffffffffffffffffffff163373ffffffffffffffffffffffffffffffffffffffff1614611389576040517f08c379a000000000000000000000000000000000000000000000000000000000815260040161138090611bfa565b60405180910390fd5b60006001600084815260200190815260200160002060040160016101000a81548160ff021916908315150217905550505050565b6060600360008373ffffffffffffffffffffffffffffffffffffffff1673ffffffffffffffffffffffffffffffffffffffff168152602001908152602001600020600001805461140c90611dd2565b80601f016020809104026020016040519081016040528092919081815260200182805461143890611dd2565b80156114855780601f1061145a57610100808354040283529160200191611485565b820191906000526020600020905b81548152906001019060200180831161146857829003601f168201915b50505050509050919050565b60006001600083815260200190815260200160002060040160009054906101000a900460ff166114f6576040517f08c379a00000000000000000000000000000000000000000000000000000000081526004016114ed90611b9a565b60405180910390fd5b600115156001600084815260200190815260200160002060040160019054906101000a900460ff16151514611560576040517f08c379a000000000000000000000000000000000000000000000000000000000815260040161155790611b7a565b60405180910390fd5b60016000838152602001908152602001600020600301549050919050565b82805461158a90611dd2565b90600052602060002090601f0160209004810192826115ac57600085556115f3565b82601f106115c557805160ff19168380011785556115f3565b828001600101855582156115f3579182015b828111156115f25782518255916020019190600101906115d7565b5b5090506116009190611604565b5090565b5b8082111561161d576000816000905550600101611605565b5090565b600061163461162f84611c9a565b611c75565b90508281526020810184848401111561164c57600080fd5b611657848285611d90565b509392505050565b60008135905061166e8161208d565b92915050565b600082601f83011261168557600080fd5b8135611695848260208601611621565b91505092915050565b6000813590506116ad816120a4565b92915050565b6000602082840312156116c557600080fd5b60006116d38482850161165f565b91505092915050565b6000806000606084860312156116f157600080fd5b60006116ff8682870161165f565b935050602084013567ffffffffffffffff81111561171c57600080fd5b61172886828701611674565b925050604084013567ffffffffffffffff81111561174557600080fd5b61175186828701611674565b9150509250925092565b6000806040838503121561176e57600080fd5b600061177c8582860161165f565b925050602061178d8582860161169e565b9150509250929050565b600080604083850312156117aa57600080fd5b600083013567ffffffffffffffff8111156117c457600080fd5b6117d085828601611674565b92505060206117e18582860161165f565b9150509250929050565b6000602082840312156117fd57600080fd5b600061180b8482850161169e565b91505092915050565b6000806040838503121561182757600080fd5b60006118358582860161169e565b92505060206118468582860161169e565b9150509250929050565b61185981611d48565b82525050565b61186881611d5a565b82525050565b600061187982611ccb565b6118838185611cd6565b9350611893818560208601611d9f565b61189c81611f0b565b840191505092915050565b60006118b4600683611ce7565b91506118bf82611f1c565b600682019050919050565b60006118d7600d83611cd6565b91506118e282611f45565b602082019050919050565b60006118fa600e83611cd6565b915061190582611f6e565b602082019050919050565b600061191d601f83611cd6565b915061192882611f97565b602082019050919050565b6000611940601583611cd6565b915061194b82611fc0565b602082019050919050565b6000611963601883611cd6565b915061196e82611fe9565b602082019050919050565b6000611986601d83611cd6565b915061199182612012565b602082019050919050565b60006119a9600783611ce7565b91506119b48261203b565b600782019050919050565b60006119cc601683611cd6565b91506119d782612064565b602082019050919050565b6119eb81611d86565b82525050565b60006119fc826118a7565b9150819050919050565b6000611a118261199c565b9150819050919050565b6000602082019050611a306000830184611850565b92915050565b600060e082019050611a4b600083018a611850565b8181036020830152611a5d818961186e565b90508181036040830152611a71818861186e565b9050611a8060608301876119e2565b611a8d608083018661185f565b611a9a60a083018561185f565b611aa760c08301846119e2565b98975050505050505050565b600060a082019050611ac86000830188611850565b8181036020830152611ada818761186e565b90508181036040830152611aee818661186e565b9050611afd60608301856119e2565b611b0a60808301846119e2565b9695505050505050565b6000604082019050611b296000830185611850565b611b3660208301846119e2565b9392505050565b6000602082019050611b52600083018461185f565b92915050565b60006020820190508181036000830152611b72818461186e565b905092915050565b60006020820190508181036000830152611b93816118ca565b9050919050565b60006020820190508181036000830152611bb3816118ed565b9050919050565b60006020820190508181036000830152611bd381611910565b9050919050565b60006020820190508181036000830152611bf381611933565b9050919050565b60006020820190508181036000830152611c1381611956565b9050919050565b60006020820190508181036000830152611c3381611979565b9050919050565b60006020820190508181036000830152611c53816119bf565b9050919050565b6000602082019050611c6f60008301846119e2565b92915050565b6000611c7f611c90565b9050611c8b8282611e04565b919050565b6000604051905090565b600067ffffffffffffffff821115611cb557611cb4611edc565b5b611cbe82611f0b565b9050602081019050919050565b600081519050919050565b600082825260208201905092915050565b600081905092915050565b6000611cfd82611d86565b9150611d0883611d86565b9250827fffffffffffffffffffffffffffffffffffffffffffffffffffffffffffffffff03821115611d3d57611d3c611e7e565b5b828201905092915050565b6000611d5382611d66565b9050919050565b60008115159050919050565b600073ffffffffffffffffffffffffffffffffffffffff82169050919050565b6000819050919050565b82818337600083830152505050565b60005b83811015611dbd578082015181840152602081019050611da2565b83811115611dcc576000848401525b50505050565b60006002820490506001821680611dea57607f821691505b60208210811415611dfe57611dfd611ead565b5b50919050565b611e0d82611f0b565b810181811067ffffffffffffffff82111715611e2c57611e2b611edc565b5b80604052505050565b6000611e4082611d86565b91507fffffffffffffffffffffffffffffffffffffffffffffffffffffffffffffffff821415611e7357611e72611e7e565b5b600182019050919050565b7f4e487b7100000000000000000000000000000000000000000000000000000000600052601160045260246000fd5b7f4e487b7100000000000000000000000000000000000000000000000000000000600052602260045260246000fd5b7f4e487b7100000000000000000000000000000000000000000000000000000000600052604160045260246000fd5b6000601f19601f8301169050919050565b7f5265776172640000000000000000000000000000000000000000000000000000600082015250565b7f6e657773206e6f74207061737300000000000000000000000000000000000000600082015250565b7f6e657773206e6f74206578697374000000000000000000000000000000000000600082015250565b7f7265776172642076616c7565206e65656420677261746572207468616e203000600082015250565b7f6f6e6c7920686f73742063616e20646f20746869730000000000000000000000600082015250565b7f6f6e6c79206d616e616765722063616e20646f20746869730000000000000000600082015250565b7f706f737465722063616e206e6f74207265776172642068696d73656c66000000600082015250565b7f4e65777341646400000000000000000000000000000000000000000000000000600082015250565b7f686f73742063616e206e6f742072657761726420697400000000000000000000600082015250565b61209681611d48565b81146120a157600080fd5b50565b6120ad81611d86565b81146120b857600080fd5b5056fea2646970667358221220d614c74c719be615563f4eaabe54795f0c460435f75fd1bf2405467080e7cb4364736f6c63430008010033",
  "immutableReferences": {},
  "source": "//SPDX-License-Identifier: UNLICENSED\r\npragma solidity ^0.8.1;\r\n\r\ncontract NewsContract_lixi {\r\n    \r\n //\r\n address public host_lixi;\r\n \r\n //\r\n struct News_lixi {\r\n  address addr;\r\n  string newsCxt;\r\n  string newsContent;\r\n  uint accumulate;\r\n  bool exist;\r\n  bool pass;\r\n  uint key;\r\n }\r\n\r\n //\r\n struct User_lixi {\r\n   string name;\r\n   address addr;\r\n   bool exist;\r\n }\r\n\r\n //\r\n struct Manager_lixi {\r\n   string name;\r\n   address addr;\r\n   bool exist;\r\n }\r\n    \r\n //\r\n mapping(uint => News_lixi) public newsData;\r\n\r\n //\r\n mapping(address => User_lixi) usersData;\r\n\r\n //\r\n mapping(address => Manager_lixi) managersData;\r\n    \r\n //\r\n uint public newsCnt_lixi;\r\n \r\n //Key\r\n uint public maxRewardNews_lixi;\r\n    \r\n //\r\n event AddNewsEvt(string indexed eventType, uint newsKey);\r\n \r\n //\r\n event RewardEvt(string indexed eventType, address sender, uint value);\r\n \r\n //\r\n constructor ()  {\r\n   host_lixi = msg.sender;\r\n\r\n }\r\n \r\n // \r\n modifier onlyHost() {\r\n   require(msg.sender == host_lixi,\r\n   \"only host can do this\");\r\n    _;\r\n }\r\n\r\n //\r\n modifier onlyManager(address addr) {\r\n   require(managersData[addr].exist == true);\r\n   require(msg.sender == addr,\r\n   \"only manager can do this\");\r\n   _;\r\n }\r\n\r\n//\r\nfunction searchHost() public view returns(address addr){\r\n  return host_lixi;\r\n}\r\n\r\n //\r\n function register(string memory name,address addr) public {\r\n    usersData[addr].name=name;\r\n    usersData[addr].addr=addr;\r\n    usersData[addr].exist=true;\r\n }\r\n\r\n //\r\n function isUserExist(address addr) public view returns (bool){\r\n    return usersData[addr].exist;\r\n }\r\n\r\n //\r\n function Users(address addr) public view returns(string memory name){\r\n     return usersData[addr].name;\r\n }\r\n\r\n //\r\n function addManager(string memory name,address addr) public onlyHost {\r\n   managersData[addr].name=name;\r\n   managersData[addr].addr=addr;\r\n   managersData[addr].exist=true;\r\n }\r\n\r\n //\r\n function isManagerExist(address addr) public view returns(bool){\r\n     return managersData[addr].exist;\r\n }\r\n\r\n  //\r\n function Managers(address addr) public view returns(string memory name){\r\n     return managersData[addr].name;\r\n\r\n }\r\n    \r\n //\r\n function addNews(address addr,string memory newsCxt,string memory newsContent) public returns(uint) {\r\n   require(usersData[addr].exist ==true);\r\n\r\n   //1\r\n   newsCnt_lixi++;\r\n         \r\n   newsData[newsCnt_lixi].addr=addr;      \r\n   newsData[newsCnt_lixi].newsCxt = newsCxt;\r\n   newsData[newsCnt_lixi].newsContent=newsContent;\r\n   newsData[newsCnt_lixi].accumulate = 0;\r\n   newsData[newsCnt_lixi].exist = true;\r\n   newsData[newsCnt_lixi].key=newsCnt_lixi;\r\n \r\n   //\r\n   emit AddNewsEvt(\"NewsAdd\", newsCnt_lixi);\r\n      \r\n   return newsCnt_lixi;\r\n }\r\n \r\n //\r\n function rewardNews(uint newsKey,uint money) public  {\r\n\r\n   //\r\n   require(msg.sender != host_lixi, \"host can not reward it\");\r\n\r\n   //\r\n   require(msg.sender != newsData[newsKey].addr, \"poster can not reward himself\");\r\n \r\n   //0\r\n   require(money > 0, \"reward value need grater than 0\");\r\n \t\r\n   //  \r\n   require(newsData[newsKey].exist, \"news not exist\");\r\n \t  \r\n   //  \r\n   newsData[newsKey].accumulate += money;\r\n     \r\n   //\r\n   if (newsData[newsKey].accumulate > newsData[maxRewardNews_lixi].accumulate)\r\n    maxRewardNews_lixi = newsKey;\r\n \r\n   //\r\n   emit RewardEvt(\"Reward\", msg.sender, money);\r\n }\r\n \r\n //\r\n function isNewsExist(uint newsKey) public view returns(bool) {\r\n   return newsData[newsKey].exist;\r\n }\r\n\r\n //\r\n function totalNews() public view returns(uint){\r\n   return newsCnt_lixi;\r\n   \r\n }\r\n\r\n //\r\nfunction checkPass(address addr,uint newsKey) public onlyManager(addr){\r\n    newsData[newsKey].pass =true;\r\n     \r\n}\r\n\r\n//\r\nfunction checkOut(address addr,uint newsKey) public onlyManager(addr){\r\n    newsData[newsKey].pass =false;\r\n}\r\n    \r\n //\r\n function queryCtx(uint newsKey) public view returns(address,string memory,string memory,uint,uint) {\r\n   \r\n   //  \r\n   require(newsData[newsKey].exist,\r\n \t  \"news not exist\");\r\n\r\n   //\r\n   require(newsData[newsKey].pass ==true,\r\n   \"news not pass\");  \r\n \t  \r\n   return (newsData[newsKey].addr,newsData[newsKey].newsCxt,newsData[newsKey].newsContent,newsData[newsKey].accumulate,newsData[newsKey].key);\r\n\r\n}\r\n    \r\n //\r\n function queryReward(uint newsKey) public view returns(uint) {\r\n \r\n  //  \r\n  require(newsData[newsKey].exist,\r\n \t  \"news not exist\");\r\n  \r\n  //\r\n  require(newsData[newsKey].pass == true,\r\n     \"news not pass\");   \r\n \t  \r\n  return newsData[newsKey].accumulate;\r\n\r\n  }\r\n\r\n\r\n}",
  "sourcePath": "D:\\Homework\\Solidity\\\\B200602___202112\\truffle\\contracts\\news.sol",
  "compiler": {
    "name": "solc",
    "version": "0.8.1+commit.df193b15.Emscripten.clang"
  },
  "schemaVersion": "3.4.3",
  "updatedAt": "2021-12-10T05:06:05.261Z",
  "networkType": "ethereum",
  "devdoc": {
    "kind": "dev",
    "methods": {},
    "version": 1
  },
  "userdoc": {
    "kind": "user",
    "methods": {},
    "version": 1
  }
}